{
  "_format": "hh-sol-artifact-1",
  "contractName": "FirstNFT",
  "sourceName": "contracts/FirstNFT.sol",
  "abi": [
    {
      "inputs": [],
      "stateMutability": "nonpayable",
      "type": "constructor"
    },
    {
      "anonymous": false,
      "inputs": [
        {
          "indexed": true,
          "internalType": "address",
          "name": "owner",
          "type": "address"
        },
        {
          "indexed": true,
          "internalType": "address",
          "name": "approved",
          "type": "address"
        },
        {
          "indexed": true,
          "internalType": "uint256",
          "name": "tokenId",
          "type": "uint256"
        }
      ],
      "name": "Approval",
      "type": "event"
    },
    {
      "anonymous": false,
      "inputs": [
        {
          "indexed": true,
          "internalType": "address",
          "name": "owner",
          "type": "address"
        },
        {
          "indexed": true,
          "internalType": "address",
          "name": "operator",
          "type": "address"
        },
        {
          "indexed": false,
          "internalType": "bool",
          "name": "approved",
          "type": "bool"
        }
      ],
      "name": "ApprovalForAll",
      "type": "event"
    },
    {
      "anonymous": false,
      "inputs": [
        {
          "indexed": false,
          "internalType": "address",
          "name": "sender",
          "type": "address"
        },
        {
          "indexed": false,
          "internalType": "uint256",
          "name": "tokenId",
          "type": "uint256"
        }
      ],
      "name": "NewMint",
      "type": "event"
    },
    {
      "anonymous": false,
      "inputs": [
        {
          "indexed": true,
          "internalType": "address",
          "name": "previousOwner",
          "type": "address"
        },
        {
          "indexed": true,
          "internalType": "address",
          "name": "newOwner",
          "type": "address"
        }
      ],
      "name": "OwnershipTransferred",
      "type": "event"
    },
    {
      "anonymous": false,
      "inputs": [
        {
          "indexed": true,
          "internalType": "address",
          "name": "from",
          "type": "address"
        },
        {
          "indexed": true,
          "internalType": "address",
          "name": "to",
          "type": "address"
        },
        {
          "indexed": true,
          "internalType": "uint256",
          "name": "tokenId",
          "type": "uint256"
        }
      ],
      "name": "Transfer",
      "type": "event"
    },
    {
      "inputs": [
        {
          "internalType": "address",
          "name": "to",
          "type": "address"
        },
        {
          "internalType": "uint256",
          "name": "tokenId",
          "type": "uint256"
        }
      ],
      "name": "approve",
      "outputs": [],
      "stateMutability": "nonpayable",
      "type": "function"
    },
    {
      "inputs": [
        {
          "internalType": "address",
          "name": "owner",
          "type": "address"
        }
      ],
      "name": "balanceOf",
      "outputs": [
        {
          "internalType": "uint256",
          "name": "",
          "type": "uint256"
        }
      ],
      "stateMutability": "view",
      "type": "function"
    },
    {
      "inputs": [
        {
          "internalType": "uint256",
          "name": "tokenId",
          "type": "uint256"
        }
      ],
      "name": "getApproved",
      "outputs": [
        {
          "internalType": "address",
          "name": "",
          "type": "address"
        }
      ],
      "stateMutability": "view",
      "type": "function"
    },
    {
      "inputs": [],
      "name": "getNumberMinted",
      "outputs": [
        {
          "internalType": "uint256",
          "name": "",
          "type": "uint256"
        }
      ],
      "stateMutability": "view",
      "type": "function"
    },
    {
      "inputs": [],
      "name": "isActiveMint",
      "outputs": [
        {
          "internalType": "bool",
          "name": "",
          "type": "bool"
        }
      ],
      "stateMutability": "view",
      "type": "function"
    },
    {
      "inputs": [
        {
          "internalType": "address",
          "name": "owner",
          "type": "address"
        },
        {
          "internalType": "address",
          "name": "operator",
          "type": "address"
        }
      ],
      "name": "isApprovedForAll",
      "outputs": [
        {
          "internalType": "bool",
          "name": "",
          "type": "bool"
        }
      ],
      "stateMutability": "view",
      "type": "function"
    },
    {
      "inputs": [],
      "name": "mint",
      "outputs": [],
      "stateMutability": "nonpayable",
      "type": "function"
    },
    {
      "inputs": [],
      "name": "name",
      "outputs": [
        {
          "internalType": "string",
          "name": "",
          "type": "string"
        }
      ],
      "stateMutability": "view",
      "type": "function"
    },
    {
      "inputs": [],
      "name": "numberMinted",
      "outputs": [
        {
          "internalType": "uint256",
          "name": "",
          "type": "uint256"
        }
      ],
      "stateMutability": "view",
      "type": "function"
    },
    {
      "inputs": [],
      "name": "owner",
      "outputs": [
        {
          "internalType": "address",
          "name": "",
          "type": "address"
        }
      ],
      "stateMutability": "view",
      "type": "function"
    },
    {
      "inputs": [
        {
          "internalType": "uint256",
          "name": "tokenId",
          "type": "uint256"
        }
      ],
      "name": "ownerOf",
      "outputs": [
        {
          "internalType": "address",
          "name": "",
          "type": "address"
        }
      ],
      "stateMutability": "view",
      "type": "function"
    },
    {
      "inputs": [
        {
          "internalType": "uint256",
          "name": "tokenId",
          "type": "uint256"
        }
      ],
      "name": "pickRandomFirstWord",
      "outputs": [
        {
          "internalType": "string",
          "name": "",
          "type": "string"
        }
      ],
      "stateMutability": "view",
      "type": "function"
    },
    {
      "inputs": [
        {
          "internalType": "uint256",
          "name": "tokenId",
          "type": "uint256"
        }
      ],
      "name": "pickRandomSecondWord",
      "outputs": [
        {
          "internalType": "string",
          "name": "",
          "type": "string"
        }
      ],
      "stateMutability": "view",
      "type": "function"
    },
    {
      "inputs": [
        {
          "internalType": "uint256",
          "name": "tokenId",
          "type": "uint256"
        }
      ],
      "name": "pickRandomThirdWord",
      "outputs": [
        {
          "internalType": "string",
          "name": "",
          "type": "string"
        }
      ],
      "stateMutability": "view",
      "type": "function"
    },
    {
      "inputs": [],
      "name": "renounceOwnership",
      "outputs": [],
      "stateMutability": "nonpayable",
      "type": "function"
    },
    {
      "inputs": [
        {
          "internalType": "address",
          "name": "from",
          "type": "address"
        },
        {
          "internalType": "address",
          "name": "to",
          "type": "address"
        },
        {
          "internalType": "uint256",
          "name": "tokenId",
          "type": "uint256"
        }
      ],
      "name": "safeTransferFrom",
      "outputs": [],
      "stateMutability": "nonpayable",
      "type": "function"
    },
    {
      "inputs": [
        {
          "internalType": "address",
          "name": "from",
          "type": "address"
        },
        {
          "internalType": "address",
          "name": "to",
          "type": "address"
        },
        {
          "internalType": "uint256",
          "name": "tokenId",
          "type": "uint256"
        },
        {
          "internalType": "bytes",
          "name": "data",
          "type": "bytes"
        }
      ],
      "name": "safeTransferFrom",
      "outputs": [],
      "stateMutability": "nonpayable",
      "type": "function"
    },
    {
      "inputs": [
        {
          "internalType": "address",
          "name": "operator",
          "type": "address"
        },
        {
          "internalType": "bool",
          "name": "approved",
          "type": "bool"
        }
      ],
      "name": "setApprovalForAll",
      "outputs": [],
      "stateMutability": "nonpayable",
      "type": "function"
    },
    {
      "inputs": [
        {
          "internalType": "bool",
          "name": "_isActive",
          "type": "bool"
        }
      ],
      "name": "setIsActiveMint",
      "outputs": [],
      "stateMutability": "nonpayable",
      "type": "function"
    },
    {
      "inputs": [
        {
          "internalType": "bytes4",
          "name": "interfaceId",
          "type": "bytes4"
        }
      ],
      "name": "supportsInterface",
      "outputs": [
        {
          "internalType": "bool",
          "name": "",
          "type": "bool"
        }
      ],
      "stateMutability": "view",
      "type": "function"
    },
    {
      "inputs": [],
      "name": "symbol",
      "outputs": [
        {
          "internalType": "string",
          "name": "",
          "type": "string"
        }
      ],
      "stateMutability": "view",
      "type": "function"
    },
    {
      "inputs": [
        {
          "internalType": "uint256",
          "name": "tokenId",
          "type": "uint256"
        }
      ],
      "name": "tokenURI",
      "outputs": [
        {
          "internalType": "string",
          "name": "",
          "type": "string"
        }
      ],
      "stateMutability": "view",
      "type": "function"
    },
    {
      "inputs": [],
      "name": "totalSupply",
      "outputs": [
        {
          "internalType": "uint256",
          "name": "",
          "type": "uint256"
        }
      ],
      "stateMutability": "view",
      "type": "function"
    },
    {
      "inputs": [
        {
          "internalType": "address",
          "name": "from",
          "type": "address"
        },
        {
          "internalType": "address",
          "name": "to",
          "type": "address"
        },
        {
          "internalType": "uint256",
          "name": "tokenId",
          "type": "uint256"
        }
      ],
      "name": "transferFrom",
      "outputs": [],
      "stateMutability": "nonpayable",
      "type": "function"
    },
    {
      "inputs": [
        {
          "internalType": "address",
          "name": "newOwner",
          "type": "address"
        }
      ],
      "name": "transferOwnership",
      "outputs": [],
      "stateMutability": "nonpayable",
      "type": "function"
    }
  ],
  "bytecode": "0x6080604052602a6009556000600b60006101000a81548160ff0219169083151502179055506040518061014001604052806040518060400160405280600381526020017f4e6577000000000000000000000000000000000000000000000000000000000081525081526020016040518060400160405280600481526020017f4c6173740000000000000000000000000000000000000000000000000000000081525081526020016040518060400160405280600681526020017f41637475616c000000000000000000000000000000000000000000000000000081525081526020016040518060400160405280600681526020017f4d6964646c65000000000000000000000000000000000000000000000000000081525081526020016040518060400160405280600581526020017f466972737400000000000000000000000000000000000000000000000000000081525081526020016040518060400160405280600681526020017f416d617a6564000000000000000000000000000000000000000000000000000081525081526020016040518060400160405280600581526020017f4372617a7900000000000000000000000000000000000000000000000000000081525081526020016040518060400160405280600581526020017f576569726400000000000000000000000000000000000000000000000000000081525081526020016040518060400160405280600681526020017f467275697479000000000000000000000000000000000000000000000000000081525081526020016040518060400160405280600581526020017f53686f7578000000000000000000000000000000000000000000000000000000815250815250600c90600a6200028e929190620009f8565b506040518061014001604052806040518060400160405280600381526020017f446f67000000000000000000000000000000000000000000000000000000000081525081526020016040518060400160405280600481526020017f4e6f73650000000000000000000000000000000000000000000000000000000081525081526020016040518060400160405280600481526020017f536e6f770000000000000000000000000000000000000000000000000000000081525081526020016040518060400160405280600881526020017f506172616c6c656c00000000000000000000000000000000000000000000000081525081526020016040518060400160405280600781526020017f5669727475616c0000000000000000000000000000000000000000000000000081525081526020016040518060400160405280600381526020017f446f6e000000000000000000000000000000000000000000000000000000000081525081526020016040518060400160405280600381526020017f484259000000000000000000000000000000000000000000000000000000000081525081526020016040518060400160405280600781526020017f4361726e6167650000000000000000000000000000000000000000000000000081525081526020016040518060400160405280600581526020017f537461726b00000000000000000000000000000000000000000000000000000081525081526020016040518060400160405280600681526020017f4d69737465720000000000000000000000000000000000000000000000000000815250815250600d90600a620004f9929190620009f8565b506040518061014001604052806040518060400160405280600481526020017f4d696e690000000000000000000000000000000000000000000000000000000081525081526020016040518060400160405280600381526020017f426f79000000000000000000000000000000000000000000000000000000000081525081526020016040518060400160405280600781526020017f417765736f6d650000000000000000000000000000000000000000000000000081525081526020016040518060200160405280600081525081526020016040518060400160405280600781526020017f426c6f77696e670000000000000000000000000000000000000000000000000081525081526020016040518060400160405280600481526020017f536578790000000000000000000000000000000000000000000000000000000081525081526020016040518060400160405280600581526020017f50697a7a6100000000000000000000000000000000000000000000000000000081525081526020016040518060400160405280600681526020017f466c79696e67000000000000000000000000000000000000000000000000000081525081526020016040518060400160405280600681526020017f4f626a656374000000000000000000000000000000000000000000000000000081525081526020016040518060400160405280600881526020017f4f62737461636c65000000000000000000000000000000000000000000000000815250815250600e90600a6200073e929190620009f8565b503480156200074c57600080fd5b506040518060400160405280600481526020017f4c616261000000000000000000000000000000000000000000000000000000008152506040518060400160405280600481526020017f4c414241000000000000000000000000000000000000000000000000000000008152508160009080519060200190620007d192919062000a5f565b508060019080519060200190620007ea92919062000a5f565b5050506200080d620008016200085e60201b60201c565b6200086660201b60201c565b620008586040518060400160405280600881526020017f6465706c6f7965640000000000000000000000000000000000000000000000008152506200092c60201b620012dc1760201c565b62000caa565b600033905090565b6000600760009054906101000a900473ffffffffffffffffffffffffffffffffffffffff16905081600760006101000a81548173ffffffffffffffffffffffffffffffffffffffff021916908373ffffffffffffffffffffffffffffffffffffffff1602179055508173ffffffffffffffffffffffffffffffffffffffff168173ffffffffffffffffffffffffffffffffffffffff167f8be0079c531659141344cd1fd0a4f28419497f9722a3daafe3b4186f6b6457e060405160405180910390a35050565b620009cc8160405160240162000943919062000c21565b6040516020818303038152906040527f41304fac000000000000000000000000000000000000000000000000000000007bffffffffffffffffffffffffffffffffffffffffffffffffffffffff19166020820180517bffffffffffffffffffffffffffffffffffffffffffffffffffffffff8381831617835250505050620009cf60201b60201c565b50565b60008151905060006a636f6e736f6c652e6c6f679050602083016000808483855afa5050505050565b82805482825590600052602060002090810192821562000a4c579160200282015b8281111562000a4b57825182908051906020019062000a3a92919062000a5f565b509160200191906001019062000a19565b5b50905062000a5b919062000af0565b5090565b82805462000a6d9062000c74565b90600052602060002090601f01602090048101928262000a91576000855562000add565b82601f1062000aac57805160ff191683800117855562000add565b8280016001018555821562000add579182015b8281111562000adc57825182559160200191906001019062000abf565b5b50905062000aec919062000b18565b5090565b5b8082111562000b14576000818162000b0a919062000b37565b5060010162000af1565b5090565b5b8082111562000b3357600081600090555060010162000b19565b5090565b50805462000b459062000c74565b6000825580601f1062000b59575062000b7a565b601f01602090049060005260206000209081019062000b79919062000b18565b5b50565b600081519050919050565b600082825260208201905092915050565b60005b8381101562000bb957808201518184015260208101905062000b9c565b8381111562000bc9576000848401525b50505050565b6000601f19601f8301169050919050565b600062000bed8262000b7d565b62000bf9818562000b88565b935062000c0b81856020860162000b99565b62000c168162000bcf565b840191505092915050565b6000602082019050818103600083015262000c3d818462000be0565b905092915050565b7f4e487b7100000000000000000000000000000000000000000000000000000000600052602260045260246000fd5b6000600282049050600182168062000c8d57607f821691505b6020821081141562000ca45762000ca362000c45565b5b50919050565b613e498062000cba6000396000f3fe608060405234801561001057600080fd5b50600436106101735760003560e01c806370a08231116100de578063a22cb46511610097578063c575757a11610071578063c575757a14610426578063c87b56dd14610456578063e985e9c514610486578063f2fde38b146104b657610173565b8063a22cb465146103be578063b187301f146103da578063b88d4fde1461040a57610173565b806370a082311461030c578063715018a61461033c5780638da5cb5b14610346578063901d331d1461036457806392dff1c81461038257806395d89b41146103a057610173565b806323b872dd1161013057806323b872dd1461023a5780632de38d681461025657806342842e0e146102865780634370c255146102a257806349a772b5146102be5780636352211e146102dc57610173565b806301ffc9a71461017857806306fdde03146101a8578063081812fc146101c6578063095ea7b3146101f65780631249c58b1461021257806318160ddd1461021c575b600080fd5b610192600480360381019061018d919061260a565b6104d2565b60405161019f9190612652565b60405180910390f35b6101b06105b4565b6040516101bd9190612706565b60405180910390f35b6101e060048036038101906101db919061275e565b610646565b6040516101ed91906127cc565b60405180910390f35b610210600480360381019061020b9190612813565b61068c565b005b61021a6107a4565b005b610224610a47565b6040516102319190612862565b60405180910390f35b610254600480360381019061024f919061287d565b610a4d565b005b610270600480360381019061026b919061275e565b610aad565b60405161027d9190612706565b60405180910390f35b6102a0600480360381019061029b919061287d565b610ba7565b005b6102bc60048036038101906102b791906128fc565b610bc7565b005b6102c6610bec565b6040516102d39190612862565b60405180910390f35b6102f660048036038101906102f1919061275e565b610bf2565b60405161030391906127cc565b60405180910390f35b61032660048036038101906103219190612929565b610ca4565b6040516103339190612862565b60405180910390f35b610344610d5c565b005b61034e610d70565b60405161035b91906127cc565b60405180910390f35b61036c610d9a565b6040516103799190612862565b60405180910390f35b61038a610da4565b6040516103979190612652565b60405180910390f35b6103a8610db7565b6040516103b59190612706565b60405180910390f35b6103d860048036038101906103d39190612956565b610e49565b005b6103f460048036038101906103ef919061275e565b610e5f565b6040516104019190612706565b60405180910390f35b610424600480360381019061041f9190612acb565b610f57565b005b610440600480360381019061043b919061275e565b610fb9565b60405161044d9190612706565b60405180910390f35b610470600480360381019061046b919061275e565b6110b1565b60405161047d9190612706565b60405180910390f35b6104a0600480360381019061049b9190612b4e565b6111c4565b6040516104ad9190612652565b60405180910390f35b6104d060048036038101906104cb9190612929565b611258565b005b60007f80ac58cd000000000000000000000000000000000000000000000000000000007bffffffffffffffffffffffffffffffffffffffffffffffffffffffff1916827bffffffffffffffffffffffffffffffffffffffffffffffffffffffff1916148061059d57507f5b5e139f000000000000000000000000000000000000000000000000000000007bffffffffffffffffffffffffffffffffffffffffffffffffffffffff1916827bffffffffffffffffffffffffffffffffffffffffffffffffffffffff1916145b806105ad57506105ac82611375565b5b9050919050565b6060600080546105c390612bbd565b80601f01602080910402602001604051908101604052809291908181526020018280546105ef90612bbd565b801561063c5780601f106106115761010080835404028352916020019161063c565b820191906000526020600020905b81548152906001019060200180831161061f57829003601f168201915b5050505050905090565b6000610651826113df565b6004600083815260200190815260200160002060009054906101000a900473ffffffffffffffffffffffffffffffffffffffff169050919050565b600061069782610bf2565b90508073ffffffffffffffffffffffffffffffffffffffff168373ffffffffffffffffffffffffffffffffffffffff161415610708576040517f08c379a00000000000000000000000000000000000000000000000000000000081526004016106ff90612c61565b60405180910390fd5b8073ffffffffffffffffffffffffffffffffffffffff1661072761142a565b73ffffffffffffffffffffffffffffffffffffffff16148061075657506107558161075061142a565b6111c4565b5b610795576040517f08c379a000000000000000000000000000000000000000000000000000000000815260040161078c90612cf3565b60405180910390fd5b61079f8383611432565b505050565b3373ffffffffffffffffffffffffffffffffffffffff163273ffffffffffffffffffffffffffffffffffffffff1614610812576040517f08c379a000000000000000000000000000000000000000000000000000000000815260040161080990612d5f565b60405180910390fd5b600061081e60086114eb565b905060011515600b60009054906101000a900460ff16151514610876576040517f08c379a000000000000000000000000000000000000000000000000000000000815260040161086d90612dcb565b60405180910390fd5b600954600a5411156108bd576040517f08c379a00000000000000000000000000000000000000000000000000000000081526004016108b490612e37565b60405180910390fd5b60006108c882610aad565b905060006108d583610e5f565b905060006108e284610fb9565b905060008383836040516020016108fb93929190612e93565b60405160208183030381529060405290506000610917826114f9565b905060006109258383611545565b90506109656040518060400160405280601581526020017f0a2d2d2d2d2d2d2d2d2d2d2d2d2d2d2d2d2d2d2d2d00000000000000000000008152506112dc565b61096e816112dc565b6109ac6040518060400160405280601581526020017f2d2d2d2d2d2d2d2d2d2d2d2d2d2d2d2d2d2d2d2d0a00000000000000000000008152506112dc565b6109b633886115a6565b6109c087826115c4565b600a60008154809291906109d390612ef3565b91905055506109e26008611638565b610a05604051806060016040528060258152602001613c8060259139883361164e565b7f52277f0b4a9b555c5aa96900a13546f972bda413737ec164aac947c87eec60243388604051610a36929190612f3c565b60405180910390a150505050505050565b60095481565b610a5e610a5861142a565b826116ed565b610a9d576040517f08c379a0000000000000000000000000000000000000000000000000000000008152600401610a9490612fd7565b60405180910390fd5b610aa8838383611782565b505050565b60606000610ae3610abd846119e9565b42604051602001610acf929190613064565b604051602081830303815290604052611b4a565b9050600c8054905081610af691906130c6565b9050600c8181548110610b0c57610b0b6130f7565b5b906000526020600020018054610b2190612bbd565b80601f0160208091040260200160405190810160405280929190818152602001828054610b4d90612bbd565b8015610b9a5780601f10610b6f57610100808354040283529160200191610b9a565b820191906000526020600020905b815481529060010190602001808311610b7d57829003601f168201915b5050505050915050919050565b610bc283838360405180602001604052806000815250610f57565b505050565b610bcf611b7d565b80600b60006101000a81548160ff02191690831515021790555050565b600a5481565b6000806002600084815260200190815260200160002060009054906101000a900473ffffffffffffffffffffffffffffffffffffffff169050600073ffffffffffffffffffffffffffffffffffffffff168173ffffffffffffffffffffffffffffffffffffffff161415610c9b576040517f08c379a0000000000000000000000000000000000000000000000000000000008152600401610c9290613172565b60405180910390fd5b80915050919050565b60008073ffffffffffffffffffffffffffffffffffffffff168273ffffffffffffffffffffffffffffffffffffffff161415610d15576040517f08c379a0000000000000000000000000000000000000000000000000000000008152600401610d0c90613204565b60405180910390fd5b600360008373ffffffffffffffffffffffffffffffffffffffff1673ffffffffffffffffffffffffffffffffffffffff168152602001908152602001600020549050919050565b610d64611b7d565b610d6e6000611bfb565b565b6000600760009054906101000a900473ffffffffffffffffffffffffffffffffffffffff16905090565b6000600a54905090565b600b60009054906101000a900460ff1681565b606060018054610dc690612bbd565b80601f0160208091040260200160405190810160405280929190818152602001828054610df290612bbd565b8015610e3f5780601f10610e1457610100808354040283529160200191610e3f565b820191906000526020600020905b815481529060010190602001808311610e2257829003601f168201915b5050505050905090565b610e5b610e5461142a565b8383611cc1565b5050565b60606000610e93610e6f846119e9565b604051602001610e7f9190613270565b604051602081830303815290604052611b4a565b9050600d8054905081610ea691906130c6565b9050600d8181548110610ebc57610ebb6130f7565b5b906000526020600020018054610ed190612bbd565b80601f0160208091040260200160405190810160405280929190818152602001828054610efd90612bbd565b8015610f4a5780601f10610f1f57610100808354040283529160200191610f4a565b820191906000526020600020905b815481529060010190602001808311610f2d57829003601f168201915b5050505050915050919050565b610f68610f6261142a565b836116ed565b610fa7576040517f08c379a0000000000000000000000000000000000000000000000000000000008152600401610f9e90612fd7565b60405180910390fd5b610fb384848484611e2e565b50505050565b60606000610fed610fc9846119e9565b604051602001610fd991906132de565b604051602081830303815290604052611b4a565b9050600e805490508161100091906130c6565b9050600e8181548110611016576110156130f7565b5b90600052602060002001805461102b90612bbd565b80601f016020809104026020016040519081016040528092919081815260200182805461105790612bbd565b80156110a45780601f10611079576101008083540402835291602001916110a4565b820191906000526020600020905b81548152906001019060200180831161108757829003601f168201915b5050505050915050919050565b60606110bc826113df565b60006006600084815260200190815260200160002080546110dc90612bbd565b80601f016020809104026020016040519081016040528092919081815260200182805461110890612bbd565b80156111555780601f1061112a57610100808354040283529160200191611155565b820191906000526020600020905b81548152906001019060200180831161113857829003601f168201915b505050505090506000611166611e8a565b905060008151141561117c5781925050506111bf565b6000825111156111b1578082604051602001611199929190613300565b604051602081830303815290604052925050506111bf565b6111ba84611ea1565b925050505b919050565b6000600560008473ffffffffffffffffffffffffffffffffffffffff1673ffffffffffffffffffffffffffffffffffffffff16815260200190815260200160002060008373ffffffffffffffffffffffffffffffffffffffff1673ffffffffffffffffffffffffffffffffffffffff16815260200190815260200160002060009054906101000a900460ff16905092915050565b611260611b7d565b600073ffffffffffffffffffffffffffffffffffffffff168173ffffffffffffffffffffffffffffffffffffffff1614156112d0576040517f08c379a00000000000000000000000000000000000000000000000000000000081526004016112c790613396565b60405180910390fd5b6112d981611bfb565b50565b611372816040516024016112f09190612706565b6040516020818303038152906040527f41304fac000000000000000000000000000000000000000000000000000000007bffffffffffffffffffffffffffffffffffffffffffffffffffffffff19166020820180517bffffffffffffffffffffffffffffffffffffffffffffffffffffffff8381831617835250505050611f09565b50565b60007f01ffc9a7000000000000000000000000000000000000000000000000000000007bffffffffffffffffffffffffffffffffffffffffffffffffffffffff1916827bffffffffffffffffffffffffffffffffffffffffffffffffffffffff1916149050919050565b6113e881611f32565b611427576040517f08c379a000000000000000000000000000000000000000000000000000000000815260040161141e90613172565b60405180910390fd5b50565b600033905090565b816004600083815260200190815260200160002060006101000a81548173ffffffffffffffffffffffffffffffffffffffff021916908373ffffffffffffffffffffffffffffffffffffffff160217905550808273ffffffffffffffffffffffffffffffffffffffff166114a583610bf2565b73ffffffffffffffffffffffffffffffffffffffff167f8c5be1e5ebec7d5bd14f71427d1e84f3dd0314c0f7b2291e5b200ac8c7c3b92560405160405180910390a45050565b600081600001549050919050565b6060600060405180610160016040528061012f8152602001613ca561012f91399050808360405160200161152e929190613402565b604051602081830303815290604052915050919050565b6060600061157b8461155685611f9e565b604051602001611567929190613587565b604051602081830303815290604052611f9e565b90508060405160200161158e9190613618565b60405160208183030381529060405291505092915050565b6115c0828260405180602001604052806000815250612102565b5050565b6115cd82611f32565b61160c576040517f08c379a0000000000000000000000000000000000000000000000000000000008152600401611603906136ac565b60405180910390fd5b806006600084815260200190815260200160002090805190602001906116339291906124fb565b505050565b6001816000016000828254019250508190555050565b6116e8838383604051602401611666939291906136cc565b6040516020818303038152906040527fe3849f79000000000000000000000000000000000000000000000000000000007bffffffffffffffffffffffffffffffffffffffffffffffffffffffff19166020820180517bffffffffffffffffffffffffffffffffffffffffffffffffffffffff8381831617835250505050611f09565b505050565b6000806116f983610bf2565b90508073ffffffffffffffffffffffffffffffffffffffff168473ffffffffffffffffffffffffffffffffffffffff16148061173b575061173a81856111c4565b5b8061177957508373ffffffffffffffffffffffffffffffffffffffff1661176184610646565b73ffffffffffffffffffffffffffffffffffffffff16145b91505092915050565b8273ffffffffffffffffffffffffffffffffffffffff166117a282610bf2565b73ffffffffffffffffffffffffffffffffffffffff16146117f8576040517f08c379a00000000000000000000000000000000000000000000000000000000081526004016117ef9061377c565b60405180910390fd5b600073ffffffffffffffffffffffffffffffffffffffff168273ffffffffffffffffffffffffffffffffffffffff161415611868576040517f08c379a000000000000000000000000000000000000000000000000000000000815260040161185f9061380e565b60405180910390fd5b61187383838361215d565b61187e600082611432565b6001600360008573ffffffffffffffffffffffffffffffffffffffff1673ffffffffffffffffffffffffffffffffffffffff16815260200190815260200160002060008282546118ce919061382e565b925050819055506001600360008473ffffffffffffffffffffffffffffffffffffffff1673ffffffffffffffffffffffffffffffffffffffff16815260200190815260200160002060008282546119259190613862565b92505081905550816002600083815260200190815260200160002060006101000a81548173ffffffffffffffffffffffffffffffffffffffff021916908373ffffffffffffffffffffffffffffffffffffffff160217905550808273ffffffffffffffffffffffffffffffffffffffff168473ffffffffffffffffffffffffffffffffffffffff167fddf252ad1be2c89b69c2b068fc378daa952ba7f163c4a11628f55a4df523b3ef60405160405180910390a46119e4838383612162565b505050565b60606000821415611a31576040518060400160405280600181526020017f30000000000000000000000000000000000000000000000000000000000000008152509050611b45565b600082905060005b60008214611a63578080611a4c90612ef3565b915050600a82611a5c91906138b8565b9150611a39565b60008167ffffffffffffffff811115611a7f57611a7e6129a0565b5b6040519080825280601f01601f191660200182016040528015611ab15781602001600182028036833780820191505090505b5090505b60008514611b3e57600182611aca919061382e565b9150600a85611ad991906130c6565b6030611ae59190613862565b60f81b818381518110611afb57611afa6130f7565b5b60200101907effffffffffffffffffffffffffffffffffffffffffffffffffffffffffffff1916908160001a905350600a85611b3791906138b8565b9450611ab5565b8093505050505b919050565b600081604051602001611b5d91906138e9565b6040516020818303038152906040528051906020012060001c9050919050565b611b8561142a565b73ffffffffffffffffffffffffffffffffffffffff16611ba3610d70565b73ffffffffffffffffffffffffffffffffffffffff1614611bf9576040517f08c379a0000000000000000000000000000000000000000000000000000000008152600401611bf09061394c565b60405180910390fd5b565b6000600760009054906101000a900473ffffffffffffffffffffffffffffffffffffffff16905081600760006101000a81548173ffffffffffffffffffffffffffffffffffffffff021916908373ffffffffffffffffffffffffffffffffffffffff1602179055508173ffffffffffffffffffffffffffffffffffffffff168173ffffffffffffffffffffffffffffffffffffffff167f8be0079c531659141344cd1fd0a4f28419497f9722a3daafe3b4186f6b6457e060405160405180910390a35050565b8173ffffffffffffffffffffffffffffffffffffffff168373ffffffffffffffffffffffffffffffffffffffff161415611d30576040517f08c379a0000000000000000000000000000000000000000000000000000000008152600401611d27906139b8565b60405180910390fd5b80600560008573ffffffffffffffffffffffffffffffffffffffff1673ffffffffffffffffffffffffffffffffffffffff16815260200190815260200160002060008473ffffffffffffffffffffffffffffffffffffffff1673ffffffffffffffffffffffffffffffffffffffff16815260200190815260200160002060006101000a81548160ff0219169083151502179055508173ffffffffffffffffffffffffffffffffffffffff168373ffffffffffffffffffffffffffffffffffffffff167f17307eab39ab6107e8899845ad3d59bd9653f200f220920489ca2b5937696c3183604051611e219190612652565b60405180910390a3505050565b611e39848484611782565b611e4584848484612167565b611e84576040517f08c379a0000000000000000000000000000000000000000000000000000000008152600401611e7b90613a4a565b60405180910390fd5b50505050565b606060405180602001604052806000815250905090565b6060611eac826113df565b6000611eb6611e8a565b90506000815111611ed65760405180602001604052806000815250611f01565b80611ee0846119e9565b604051602001611ef1929190613300565b6040516020818303038152906040525b915050919050565b60008151905060006a636f6e736f6c652e6c6f679050602083016000808483855afa5050505050565b60008073ffffffffffffffffffffffffffffffffffffffff166002600084815260200190815260200160002060009054906101000a900473ffffffffffffffffffffffffffffffffffffffff1673ffffffffffffffffffffffffffffffffffffffff1614159050919050565b6060600082511415611fc1576040518060200160405280600081525090506120fd565b6000604051806060016040528060408152602001613dd46040913990506000600360028551611ff09190613862565b611ffa91906138b8565b60046120069190613a6a565b67ffffffffffffffff81111561201f5761201e6129a0565b5b6040519080825280601f01601f1916602001820160405280156120515781602001600182028036833780820191505090505b509050600182016020820185865187015b808210156120bd576003820191508151603f8160121c168501518453600184019350603f81600c1c168501518453600184019350603f8160061c168501518453600184019350603f8116850151845360018401935050612062565b50506003865106600181146120d957600281146120ec576120f4565b603d6001830353603d60028303536120f4565b603d60018303535b50505080925050505b919050565b61210c83836122fe565b6121196000848484612167565b612158576040517f08c379a000000000000000000000000000000000000000000000000000000000815260040161214f90613a4a565b60405180910390fd5b505050565b505050565b505050565b60006121888473ffffffffffffffffffffffffffffffffffffffff166124d8565b156122f1578373ffffffffffffffffffffffffffffffffffffffff1663150b7a026121b161142a565b8786866040518563ffffffff1660e01b81526004016121d39493929190613b19565b602060405180830381600087803b1580156121ed57600080fd5b505af192505050801561221e57506040513d601f19601f8201168201806040525081019061221b9190613b7a565b60015b6122a1573d806000811461224e576040519150601f19603f3d011682016040523d82523d6000602084013e612253565b606091505b50600081511415612299576040517f08c379a000000000000000000000000000000000000000000000000000000000815260040161229090613a4a565b60405180910390fd5b805181602001fd5b63150b7a0260e01b7bffffffffffffffffffffffffffffffffffffffffffffffffffffffff1916817bffffffffffffffffffffffffffffffffffffffffffffffffffffffff1916149150506122f6565b600190505b949350505050565b600073ffffffffffffffffffffffffffffffffffffffff168273ffffffffffffffffffffffffffffffffffffffff16141561236e576040517f08c379a000000000000000000000000000000000000000000000000000000000815260040161236590613bf3565b60405180910390fd5b61237781611f32565b156123b7576040517f08c379a00000000000000000000000000000000000000000000000000000000081526004016123ae90613c5f565b60405180910390fd5b6123c36000838361215d565b6001600360008473ffffffffffffffffffffffffffffffffffffffff1673ffffffffffffffffffffffffffffffffffffffff16815260200190815260200160002060008282546124139190613862565b92505081905550816002600083815260200190815260200160002060006101000a81548173ffffffffffffffffffffffffffffffffffffffff021916908373ffffffffffffffffffffffffffffffffffffffff160217905550808273ffffffffffffffffffffffffffffffffffffffff16600073ffffffffffffffffffffffffffffffffffffffff167fddf252ad1be2c89b69c2b068fc378daa952ba7f163c4a11628f55a4df523b3ef60405160405180910390a46124d460008383612162565b5050565b6000808273ffffffffffffffffffffffffffffffffffffffff163b119050919050565b82805461250790612bbd565b90600052602060002090601f0160209004810192826125295760008555612570565b82601f1061254257805160ff1916838001178555612570565b82800160010185558215612570579182015b8281111561256f578251825591602001919060010190612554565b5b50905061257d9190612581565b5090565b5b8082111561259a576000816000905550600101612582565b5090565b6000604051905090565b600080fd5b600080fd5b60007fffffffff0000000000000000000000000000000000000000000000000000000082169050919050565b6125e7816125b2565b81146125f257600080fd5b50565b600081359050612604816125de565b92915050565b6000602082840312156126205761261f6125a8565b5b600061262e848285016125f5565b91505092915050565b60008115159050919050565b61264c81612637565b82525050565b60006020820190506126676000830184612643565b92915050565b600081519050919050565b600082825260208201905092915050565b60005b838110156126a757808201518184015260208101905061268c565b838111156126b6576000848401525b50505050565b6000601f19601f8301169050919050565b60006126d88261266d565b6126e28185612678565b93506126f2818560208601612689565b6126fb816126bc565b840191505092915050565b6000602082019050818103600083015261272081846126cd565b905092915050565b6000819050919050565b61273b81612728565b811461274657600080fd5b50565b60008135905061275881612732565b92915050565b600060208284031215612774576127736125a8565b5b600061278284828501612749565b91505092915050565b600073ffffffffffffffffffffffffffffffffffffffff82169050919050565b60006127b68261278b565b9050919050565b6127c6816127ab565b82525050565b60006020820190506127e160008301846127bd565b92915050565b6127f0816127ab565b81146127fb57600080fd5b50565b60008135905061280d816127e7565b92915050565b6000806040838503121561282a576128296125a8565b5b6000612838858286016127fe565b925050602061284985828601612749565b9150509250929050565b61285c81612728565b82525050565b60006020820190506128776000830184612853565b92915050565b600080600060608486031215612896576128956125a8565b5b60006128a4868287016127fe565b93505060206128b5868287016127fe565b92505060406128c686828701612749565b9150509250925092565b6128d981612637565b81146128e457600080fd5b50565b6000813590506128f6816128d0565b92915050565b600060208284031215612912576129116125a8565b5b6000612920848285016128e7565b91505092915050565b60006020828403121561293f5761293e6125a8565b5b600061294d848285016127fe565b91505092915050565b6000806040838503121561296d5761296c6125a8565b5b600061297b858286016127fe565b925050602061298c858286016128e7565b9150509250929050565b600080fd5b600080fd5b7f4e487b7100000000000000000000000000000000000000000000000000000000600052604160045260246000fd5b6129d8826126bc565b810181811067ffffffffffffffff821117156129f7576129f66129a0565b5b80604052505050565b6000612a0a61259e565b9050612a1682826129cf565b919050565b600067ffffffffffffffff821115612a3657612a356129a0565b5b612a3f826126bc565b9050602081019050919050565b82818337600083830152505050565b6000612a6e612a6984612a1b565b612a00565b905082815260208101848484011115612a8a57612a8961299b565b5b612a95848285612a4c565b509392505050565b600082601f830112612ab257612ab1612996565b5b8135612ac2848260208601612a5b565b91505092915050565b60008060008060808587031215612ae557612ae46125a8565b5b6000612af3878288016127fe565b9450506020612b04878288016127fe565b9350506040612b1587828801612749565b925050606085013567ffffffffffffffff811115612b3657612b356125ad565b5b612b4287828801612a9d565b91505092959194509250565b60008060408385031215612b6557612b646125a8565b5b6000612b73858286016127fe565b9250506020612b84858286016127fe565b9150509250929050565b7f4e487b7100000000000000000000000000000000000000000000000000000000600052602260045260246000fd5b60006002820490506001821680612bd557607f821691505b60208210811415612be957612be8612b8e565b5b50919050565b7f4552433732313a20617070726f76616c20746f2063757272656e74206f776e6560008201527f7200000000000000000000000000000000000000000000000000000000000000602082015250565b6000612c4b602183612678565b9150612c5682612bef565b604082019050919050565b60006020820190508181036000830152612c7a81612c3e565b9050919050565b7f4552433732313a20617070726f76652063616c6c6572206973206e6f7420746f60008201527f6b656e206f776e6572206e6f7220617070726f76656420666f7220616c6c0000602082015250565b6000612cdd603e83612678565b9150612ce882612c81565b604082019050919050565b60006020820190508181036000830152612d0c81612cd0565b9050919050565b7f5468652063616c6c657220697320616e6f7468657220636f6e74726163740000600082015250565b6000612d49601e83612678565b9150612d5482612d13565b602082019050919050565b60006020820190508181036000830152612d7881612d3c565b9050919050565b7f6d696e74206973206e6f74206163746976650000000000000000000000000000600082015250565b6000612db5601283612678565b9150612dc082612d7f565b602082019050919050565b60006020820190508181036000830152612de481612da8565b9050919050565b7f6d696e746564206f757400000000000000000000000000000000000000000000600082015250565b6000612e21600a83612678565b9150612e2c82612deb565b602082019050919050565b60006020820190508181036000830152612e5081612e14565b9050919050565b600081905092915050565b6000612e6d8261266d565b612e778185612e57565b9350612e87818560208601612689565b80840191505092915050565b6000612e9f8286612e62565b9150612eab8285612e62565b9150612eb78284612e62565b9150819050949350505050565b7f4e487b7100000000000000000000000000000000000000000000000000000000600052601160045260246000fd5b6000612efe82612728565b91507fffffffffffffffffffffffffffffffffffffffffffffffffffffffffffffffff821415612f3157612f30612ec4565b5b600182019050919050565b6000604082019050612f5160008301856127bd565b612f5e6020830184612853565b9392505050565b7f4552433732313a2063616c6c6572206973206e6f7420746f6b656e206f776e6560008201527f72206e6f7220617070726f766564000000000000000000000000000000000000602082015250565b6000612fc1602e83612678565b9150612fcc82612f65565b604082019050919050565b60006020820190508181036000830152612ff081612fb4565b9050919050565b7f46495253545f574f524400000000000000000000000000000000000000000000600082015250565b600061302d600a83612e57565b915061303882612ff7565b600a82019050919050565b6000819050919050565b61305e61305982612728565b613043565b82525050565b600061306f82613020565b915061307b8285612e62565b9150613087828461304d565b6020820191508190509392505050565b7f4e487b7100000000000000000000000000000000000000000000000000000000600052601260045260246000fd5b60006130d182612728565b91506130dc83612728565b9250826130ec576130eb613097565b5b828206905092915050565b7f4e487b7100000000000000000000000000000000000000000000000000000000600052603260045260246000fd5b7f4552433732313a20696e76616c696420746f6b656e2049440000000000000000600082015250565b600061315c601883612678565b915061316782613126565b602082019050919050565b6000602082019050818103600083015261318b8161314f565b9050919050565b7f4552433732313a2061646472657373207a65726f206973206e6f74206120766160008201527f6c6964206f776e65720000000000000000000000000000000000000000000000602082015250565b60006131ee602983612678565b91506131f982613192565b604082019050919050565b6000602082019050818103600083015261321d816131e1565b9050919050565b7f5345434f4e445f574f5244000000000000000000000000000000000000000000600082015250565b600061325a600b83612e57565b915061326582613224565b600b82019050919050565b600061327b8261324d565b91506132878284612e62565b915081905092915050565b7f54484952445f574f524400000000000000000000000000000000000000000000600082015250565b60006132c8600a83612e57565b91506132d382613292565b600a82019050919050565b60006132e9826132bb565b91506132f58284612e62565b915081905092915050565b600061330c8285612e62565b91506133188284612e62565b91508190509392505050565b7f4f776e61626c653a206e6577206f776e657220697320746865207a65726f206160008201527f6464726573730000000000000000000000000000000000000000000000000000602082015250565b6000613380602683612678565b915061338b82613324565b604082019050919050565b600060208201905081810360008301526133af81613373565b9050919050565b7f3c2f746578743e3c2f7376673e00000000000000000000000000000000000000600082015250565b60006133ec600d83612e57565b91506133f7826133b6565b600d82019050919050565b600061340e8285612e62565b915061341a8284612e62565b9150613425826133df565b91508190509392505050565b7f7b226e616d65223a202200000000000000000000000000000000000000000000600082015250565b6000613467600a83612e57565b915061347282613431565b600a82019050919050565b7f222c20226465736372697074696f6e223a20224120686967686c79206163636c60008201527f61696d656420636f6c6c656374696f6e206f66204c41624120644164412e222c60208201527f2022696d616765223a2022646174613a696d6167652f7376672b786d6c3b626160408201527f736536342c000000000000000000000000000000000000000000000000000000606082015250565b6000613525606583612e57565b91506135308261347d565b606582019050919050565b7f227d000000000000000000000000000000000000000000000000000000000000600082015250565b6000613571600283612e57565b915061357c8261353b565b600282019050919050565b60006135928261345a565b915061359e8285612e62565b91506135a982613518565b91506135b58284612e62565b91506135c082613564565b91508190509392505050565b7f646174613a6170706c69636174696f6e2f6a736f6e3b6261736536342c000000600082015250565b6000613602601d83612e57565b915061360d826135cc565b601d82019050919050565b6000613623826135f5565b915061362f8284612e62565b915081905092915050565b7f45524337323155524953746f726167653a2055524920736574206f66206e6f6e60008201527f6578697374656e7420746f6b656e000000000000000000000000000000000000602082015250565b6000613696602e83612678565b91506136a18261363a565b604082019050919050565b600060208201905081810360008301526136c581613689565b9050919050565b600060608201905081810360008301526136e681866126cd565b90506136f56020830185612853565b61370260408301846127bd565b949350505050565b7f4552433732313a207472616e736665722066726f6d20696e636f72726563742060008201527f6f776e6572000000000000000000000000000000000000000000000000000000602082015250565b6000613766602583612678565b91506137718261370a565b604082019050919050565b6000602082019050818103600083015261379581613759565b9050919050565b7f4552433732313a207472616e7366657220746f20746865207a65726f2061646460008201527f7265737300000000000000000000000000000000000000000000000000000000602082015250565b60006137f8602483612678565b91506138038261379c565b604082019050919050565b60006020820190508181036000830152613827816137eb565b9050919050565b600061383982612728565b915061384483612728565b92508282101561385757613856612ec4565b5b828203905092915050565b600061386d82612728565b915061387883612728565b9250827fffffffffffffffffffffffffffffffffffffffffffffffffffffffffffffffff038211156138ad576138ac612ec4565b5b828201905092915050565b60006138c382612728565b91506138ce83612728565b9250826138de576138dd613097565b5b828204905092915050565b60006138f58284612e62565b915081905092915050565b7f4f776e61626c653a2063616c6c6572206973206e6f7420746865206f776e6572600082015250565b6000613936602083612678565b915061394182613900565b602082019050919050565b6000602082019050818103600083015261396581613929565b9050919050565b7f4552433732313a20617070726f766520746f2063616c6c657200000000000000600082015250565b60006139a2601983612678565b91506139ad8261396c565b602082019050919050565b600060208201905081810360008301526139d181613995565b9050919050565b7f4552433732313a207472616e7366657220746f206e6f6e20455243373231526560008201527f63656976657220696d706c656d656e7465720000000000000000000000000000602082015250565b6000613a34603283612678565b9150613a3f826139d8565b604082019050919050565b60006020820190508181036000830152613a6381613a27565b9050919050565b6000613a7582612728565b9150613a8083612728565b9250817fffffffffffffffffffffffffffffffffffffffffffffffffffffffffffffffff0483118215151615613ab957613ab8612ec4565b5b828202905092915050565b600081519050919050565b600082825260208201905092915050565b6000613aeb82613ac4565b613af58185613acf565b9350613b05818560208601612689565b613b0e816126bc565b840191505092915050565b6000608082019050613b2e60008301876127bd565b613b3b60208301866127bd565b613b486040830185612853565b8181036060830152613b5a8184613ae0565b905095945050505050565b600081519050613b74816125de565b92915050565b600060208284031215613b9057613b8f6125a8565b5b6000613b9e84828501613b65565b91505092915050565b7f4552433732313a206d696e7420746f20746865207a65726f2061646472657373600082015250565b6000613bdd602083612678565b9150613be882613ba7565b602082019050919050565b60006020820190508181036000830152613c0c81613bd0565b9050919050565b7f4552433732313a20746f6b656e20616c7265616479206d696e74656400000000600082015250565b6000613c49601c83612678565b9150613c5482613c13565b602082019050919050565b60006020820190508181036000830152613c7881613c3c565b905091905056fe416e204e465420772f20494420257320686173206265656e206d696e74656420746f2025733c73766720786d6c6e733d27687474703a2f2f7777772e77332e6f72672f323030302f73766727207072657365727665417370656374526174696f3d27784d696e594d696e206d656574272076696577426f783d273020302033353020333530273e3c7374796c653e2e62617365207b2066696c6c3a2077686974653b20666f6e742d66616d696c793a2073657269663b20666f6e742d73697a653a20323470783b207d3c2f7374796c653e3c726563742077696474683d273130302527206865696768743d2731303025272066696c6c3d27626c61636b27202f3e3c7465787420783d273530252720793d273530252720636c6173733d27626173652720646f6d696e616e742d626173656c696e653d276d6964646c652720746578742d616e63686f723d276d6964646c65273e4142434445464748494a4b4c4d4e4f505152535455565758595a6162636465666768696a6b6c6d6e6f707172737475767778797a303132333435363738392b2fa2646970667358221220e1e1a2c37f86214ab138778fc8224bf8f31fcff00078b39bb5590029cbf4cb2164736f6c63430008090033",
  "linkReferences": {},
  "deployedLinkReferences": {}
}